:100000000EC028C027C026C025C035C123C022C0CD
:1000100021C020C01FC01EC01DC01CC01BC0112499
:100020001FBECFE5D1E0DEBFCDBF11E0A0E6B0E05E
:10003000E0EAF4E002C005900D92A430B107D9F7D0
:1000400011E0A4E0B1E001C01D92A631B107E1F7D3
:10005000D0D124C2D5CFFC018585882339F00895FD
:10006000D901A40FB51F1C92672F01C060E0462F75
:1000700050E0808590E0029724813581762F7F5F64
:10008000481759076CF382819381D901A70FB11DDD
:100090009C936E5FA481B581A60FB11D8C9381E006
:1000A0008587089520910D0130E0220F331FE091E4
:1000B0000B01F0910C01E20FF31F0190F081E02D94
:1000C000618772878387948782E08587FFCFCF938C
:1000D000DF9330910E01C0910B01D0910C0120E013
:1000E00041E01DC0E991F99185858230B9F481859F
:1000F0009285A385B4858B3F9105A105B10530F4A8
:100100001186128613861486458708C08A5F910976
:10011000A109B10981879287A387B4872F5F231331
:10012000E1CFDF91CF91089590910E01E0910B0105
:10013000F0910C0180E007C0A191B1911D962C9126
:10014000233029F48F5F8913F7CF8FEF089580E074
:1001500008952DB73EB7295F3F4F3093100120938C
:100160000F0110920D0190930C0180930B0160938D
:100170000E010DC0F0E0EE0FFF1FEA0FFB1F8081A4
:10018000918169DF80910D018F5F80930D01E09176
:100190000D0180910E01A0910B01B0910C01E817A7
:1001A00048F310920D01ED91FC9182E08ABD89BF68
:1001B00078948681978180969EBF8DBF0190F08153
:1001C000E02D099440910D01242F30E080910E0123
:1001D00090E001972817390724F44F5F40930D01F1
:1001E000089510920D010895CF9320910901309147
:1001F0000A012E3E82E0380791F5E0910701F09167
:100200000801E73E83E0F80709F5409106014B330A
:10021000A9F4C0910501CB3349F48091040190E029
:10022000019668E170E027D1809304018C2F90E063
:1002300001966CE370E01FD180930501842F90E05C
:1002400001966CE370E017D180930601CF0101960F
:1002500068EE73E0FCD09093080180930701C90118
:1002600086509F4F68EE73E0F2D090930A0180931E
:100270000901CF91089558DF811168C00F921F9234
:100280002F923F924F925F926F927F928F929F92A6
:10029000AF92BF92CF92DF92EF92FF920F931F9394
:1002A0002F933F934F935F936F937F938F939F937E
:1002B000AF93BF93CF93DF93EF93FF932DB73EB7E9
:1002C00080910D0190E0880F991FE0910B01F09152
:1002D0000C01E80FF91F0190F081E02D3783268390
:1002E00083DFF5DE6FDF80910D0190E0880F991FAD
:1002F000E0910B01F0910C01E80FF91F0190F081E2
:10030000E02D868197819EBF8DBFFF91EF91DF9198
:10031000CF91BF91AF919F918F917F916F915F919D
:100320004F913F912F911F910F91FF90EF90DF9090
:10033000CF90BF90AF909F908F907F906F905F9085
:100340004F903F902F901F900F9007C080910F010A
:10035000909110019EBF8DBF19BE18951092120189
:100360001092130110921401109215010DC0C09A41
:10037000C0980196A11DB11D8093120190931301A5
:10038000A0931401B0931501809112019091130173
:10039000A0911401B0911501803A26E8920721E05E
:1003A000A207B10520F383E08093C1000000FECFD7
:1003B000109211010FC084E6C19AC1988150E1F7F3
:1003C00060E27EE480E090E06DDE809111018F5F5D
:1003D0008093110180911101823068F383E0809352
:1003E00071000000FECFB89AB99ABA9ABB9ABC9A2B
:1003F00008958FE591E09EBF8DBF00241124222433
:100400003324442455246624772488249924AA2458
:10041000BB24CC24DD24EE24FF240027112722272F
:100420003327442755276627772788279927AA2720
:10043000BB27CC27DD27EE27FF27D5DFC39AC3983C
:1004400062E080E690E085DEC39AC398FDCFAA1BE8
:10045000BB1B51E107C0AA1FBB1FA617B70710F0AF
:10046000A61BB70B881F991F5A95A9F780959095E1
:10047000BC01CD01089597FB072E16F4009406D019
:1004800077FD08D0E4DF07FC05D03EF49095819518
:100490009F4F0895709561957F4F0895F894FFCF11
:1004A000B4006400D801D80172009200420000003C
:1004B0000000535441434B000000000000000000C6
:1004C000000000000000000000000000000000002C
:1004D000000000000000000000000000000000001C
:1004E000000000000000000000000000000000000C
:1004F00000000000AE01AE01C200E20042000000B8
:100500000000535441434B00000000000000000075
:1005100000000000000000000000000000000000DB
:1005200000000000000000000000000000000000CB
:1005300000000000000000000000000000000000BB
:0405400000000000B7
:00000001FF
