:1000000012C02CC02BC02AC029C028C027C026C0BF
:1000100025C025C323C022C021C020C01FC01EC0D0
:100020001DC01CC01BC011241FBECFE5D4E0DEBF25
:10003000CDBF11E0A0E6B0E0EEEBF7E002C0059026
:100040000D92A430B107D9F711E0A4E0B1E001C0EE
:100050001D92A631B107E1F7A0D0AFC3D1CFDF9396
:10006000CF93CDB7DEB7A7E3B0E0E7E3F0E0808160
:1000700081608C93A7E3B0E0E7E3F0E080818260E9
:100080008C93A7E3B0E0E7E3F0E0808184608C9399
:10009000A7E3B0E0E7E3F0E0808188608C93A7E31A
:1000A000B0E0E7E3F0E0808180618C93CF91DF9155
:1000B0000895DF93CF93CDB7DEB710920C01109265
:1000C0000D0110920E0110920F0121C0A8E3B0E0C3
:1000D000E8E3F0E0808181608C93A8E3B0E0E8E39E
:1000E000F0E080818E7F8C9380910C0190910D01C6
:1000F000A0910E01B0910F010196A11DB11D809339
:100100000C0190930D01A0930E01B0930F0180910B
:100110000C0190910D01A0910E01B0910F01803A58
:1001200026E8920721E0A20720E0B20778F283E0F8
:100130008093AF000000FECFDF93CF930F92CDB737
:10014000DEB710920B0120C0198211C0A8E3B0E005
:10015000E8E3F0E0808182608C93A8E3B0E0E8E31C
:10016000F0E080818D7F8C9389818F5F8983898185
:10017000843660F360E27EE480E090E0BBD0809162
:100180000B018F5F80930B0180910B018230E0F2B5
:1001900083E08093FF000000FECFDF93CF93CDB7C5
:1001A000DEB7EDE5F0E08FE594E0918380830024F5
:1001B00011242224332444245524662477248824BB
:1001C0009924AA24BB24CC24DD24EE24FF24002778
:1001D0001127222733274427552766277727882783
:1001E0009927AA27BB27CC27DD27EE27FF2737DF54
:1001F000A8E3B0E0E8E3F0E0808188608C93A8E3B6
:10020000B0E0E8E3F0E08081877F8C9380E091E0CC
:1002100062E043D1A8E3B0E0E8E3F0E080818860E9
:100220008C93A8E3B0E0E8E3F0E08081877F8C93D3
:10023000F1CFDF93CF9300D000D00F92CDB7DEB7D0
:100240009D838C83EC81FD818585882309F04AC0DC
:100250001B820EC0EC81FD81248135818B81882F2A
:1002600090E0F901E80FF91F10828B818F5F8B837B
:100270008B81282F30E0EC81FD818085882F90E0F4
:1002800002972817390734F3EC81FD81828193812D
:10029000892F99278A83EC81FD81828193818983CB
:1002A0008B818F5F8B83EC81FD81248135818B81F4
:1002B000882F90E0F901E80FF91F8A8180838B81F4
:1002C0008F5F8B83EC81FD81248135818B81882F29
:1002D00090E0F901E80FF91F89818083EC81FD81AD
:1002E00081E085870F900F900F900F900F90CF9126
:1002F000DF910895DF93CF93CDB7DEB727970FB681
:10030000F894DEBF0FBECDBF6C837D838E839F8349
:100310001982209110013091110180911201882FD2
:1003200090E0880F991FF901E80FF91F80819181F2
:100330009B838A83EA81FB818C819D81AE81BF8111
:1003400081879287A387B487EA81FB8182E08587D2
:10035000209110013091110180911201882F90E0BD
:10036000880F991FF901E80FF91F0190F081E02D26
:1003700085851982823011F481E0898389818823FF
:1003800039F727960FB6F894DEBF0FBECDBFCF91D9
:10039000DF910895DF93CF9300D00F92CDB7DEB7F2
:1003A0001B823EC020911001309111018B81882F5A
:1003B00090E0880F991FF901E80FF91F8081918162
:1003C0009A838983E981FA818585823031F5E981D3
:1003D000FA8181859285A385B4858B3F9105A1051E
:1003E000B10558F4E981FA811186128613861486C4
:1003F000E981FA8181E0858710C0E981FA818185F0
:100400009285A385B4858A5F9040A040B040E98181
:10041000FA8181879287A387B4878B818F5F8B83D3
:10042000909113018B81891708F4BCCF0F900F9026
:100430000F90CF91DF910895DF93CF9300D000D03C
:10044000CDB7DEB78FEF89831C821AC020911001CF
:10045000309111018C81882F90E0880F991FF9014C
:10046000E80FF91F808191819B838A83EA81FB8158
:100470008585833011F0198208C08C818F5F8C8351
:10048000909113018C81891708F389810F900F9047
:100490000F900F90CF91DF910895DF93CF9300D00D
:1004A00000D00F92CDB7DEB79C838B836D83EDE5D3
:1004B000F0E080819181079690931501809314015B
:1004C000109212018B819C819093110180931001F5
:1004D0008D81809313011092120119C02091100197
:1004E0003091110180911201882F90E0880F991F9F
:1004F000F901E80FF91F808191819A8389838981AD
:100500009A8197DE809112018F5F80931201909102
:10051000120180911301981708F310921201E091D3
:100520001001F0911101808191819A838983E3E523
:10053000F0E082E08083E9E5F0E081E08083789478
:10054000ADE5B0E0E981FA818681978180961196C8
:100550009C938E93E981FA810190F081E02D0995B9
:100560000F900F900F900F900F90CF91DF91089503
:10057000DF93CF93CDB7DEB780911201282F30E003
:1005800080911301882F90E001972817390734F4E0
:10059000809112018F5F8093120102C010921201AC
:1005A000CF91DF910895DF93CF93CDB7DEB78091E0
:1005B000090190910A0122E08E3E920709F03EC0A7
:1005C000809107019091080123E0873E920749F549
:1005D000809106018B33D1F4809105018B3359F45E
:1005E00080910401882F90E0019628E130E0B90164
:1005F000D1D08093040180910501882F90E001966D
:100600002CE330E0B901C6D080930501809106014A
:10061000882F90E001962CE330E0B901BBD08093A5
:1006200006018091070190910801019628EE33E0C0
:10063000B9019CD090930801809307018091090132
:1006400090910A0186509F4F28EE33E0B9018ED079
:1006500090930A0180930901CF91DF910895ECDE18
:10066000882309F077C00F921F922F923F924F92EA
:100670005F926F927F928F929F92AF92BF92CF9232
:10068000DF92EF92FF920F931F932F933F934F931D
:100690005F936F937F938F939F93AF93BF93CF930A
:1006A000DF93EF93FF93209110013091110180911E
:1006B0001201882F90E0880F991FF901E80FF91FA8
:1006C000808191819A838983EDE5F0E08081918139
:1006D000E981FA819783868366DF5CDE49DF2091BA
:1006E00010013091110180911201882F90E0880F44
:1006F000991FF901E80FF91F808191819A838983FD
:10070000ADE5B0E0E981FA818681978111969C93ED
:100710008E93FF91EF91DF91CF91BF91AF919F9118
:100720008F917F916F915F914F913F912F911F9189
:100730000F91FF90EF90DF90CF90BF90AF909F9080
:100740008F907F906F905F904F903F902F901F9071
:100750000F900BC0EDE5F0E0809114019091150130
:1007600091838083E9E5F0E010821895AA1BBB1BFA
:1007700051E107C0AA1FBB1FA617B70710F0A61BA1
:10078000B70B881F991F5A95A9F780959095BC01C2
:10079000CD01089597FB092E07260AD077FD04D0D6
:1007A000E5DF06D000201AF4709561957F4F08951B
:0E07B000F6F7909581959F4F0895F894FFCF2E
:1007BE00535441434B0000000000000000000000B5
:1007CE00000000000000000000000000000000001B
:1007DE00000000000000000000000000000000000B
:1007EE0000000000000000000000000000000000FB
:1007FE000000590059006000800042000000000017
:10080E00535441434B000000000000000000000064
:10081E0000000000000000000000000000000000CA
:10082E0000000000000000000000000000000000BA
:10083E0000000000000000000000000000000000AA
:10084E0000009C009C00B000D000420000000000A0
:04085E00A200F20002
:00000001FF
