:100000000C94DF000C94FC000C94FC000C94FC009D
:100010000C94FC000C94FC000C94FC000C94FC0070
:100020000C94FC000C94FC000C94FC000C947304E5
:100030000C94FC000C94FC000C94FC000C94FC0050
:100040000C94FC000C94FC000C94FC000C94FC0040
:100050000C94FC0074696D65746573742E63007490
:10006000696D65746573742E630074696D6574657C
:1000700073742E630074696D65746573742E630008
:1000800074696D65746573742E63002D2D2D3D3D6F
:100090003D2323232054657374737569746520238D
:1000A00023233D3D3D2D2D2D0A000A2D2D2D2D2DD7
:1000B0002046696E6973686564205465737473754E
:1000C000697465202D2D2D2D0A002072756E732008
:1000D0006F6620000A457870656374656420002DA2
:1000E0002D2D3D3D3D2323232320524553554C5474
:1000F0005320232323233D3D3D2D2D2D0A45727290
:100100006F72733D004661696C7572650A004F4BF2
:100110000A002E2E2E2000436865636B696E6720EF
:100120005472616365706F696E742000204552528D
:100130004F52530A0054657374732061626F727476
:1001400065642062656361757365206F6620004693
:1001500061696C7572650A004F4B0A00292E2E2EBC
:1001600020002C002061737365727447726561749E
:1001700065722800206173736572744772656174DB
:100180006572457175616C280020617373657274C6
:10019000457175616C732800206173736572744CCE
:1001A0006F776572457175616C28002061737365A6
:1001B00072744C6F7765722800202A200000112489
:1001C0001FBECFE5D8E0DEBFCDBF11E0A0E6B0E0B6
:1001D000E8EAFEE002C005900D92A43CB107D9F711
:1001E00011E0A4ECB1E001C01D92A03EB107E1F71F
:1001F0000E94C0010C9452070C940000DF93CF932F
:10020000CDB7DEB7A7E3B0E0E7E3F0E0808181603F
:100210008C93A7E3B0E0E7E3F0E0808182608C9309
:10022000A7E3B0E0E7E3F0E0808184608C93A7E38C
:10023000B0E0E7E3F0E0808188608C93A7E3B0E072
:10024000E7E3F0E0808180618C9381E08093D901C5
:10025000CF91DF910895DF93CF93CDB7DEB71092A2
:10026000C4011092C5011092C6011092C7013DC091
:100270001092C8011092C9011092CA011092CB01CC
:1002800014C000008091C8019091C901A091CA01D9
:10029000B091CB010196A11DB11D8093C80190932F
:1002A000C901A093CA01B093CB018091C80190917C
:1002B000C901A091CA01B091CB0182309105A1057D
:1002C000B105F8F28091C4019091C501A091C601D9
:1002D000B091C7010196A11DB11D8093C4019093F7
:1002E000C501A093C601B093C7018091C40190914C
:1002F000C501A091C601B091C701883E23E09207D5
:1003000020E0A20720E0B20708F4B2CF83E0809398
:100310000F010000FECFDF93CF930F92CDB7DEB772
:100320001092CC0121C0198211C0A8E3B0E0E8E32B
:10033000F0E0808182608C93A8E3B0E0E8E3F0E035
:1003400080818D7F8C9389818F5F898389818436B9
:1003500060F360E27EE480E090E00E94B802809169
:10036000CC018F5F8093CC018091CC018230D8F298
:1003700082E08093D90183E08093BF010000FECF2B
:100380000F93DF93CF93CDB7DEB7EDE5F0E08FE5C8
:1003900098E0918380830024112422243324442470
:1003A00055246624772488249924AA24BB24CC24A9
:1003B000DD24EE24FF24002711272227332744279A
:1003C00055276627772788279927AA27BB27CC2771
:1003D000DD27EE27FF270E94FE040E94A00520E8EB
:1003E00030E08091C4019091C501A091C601B09107
:1003F000C701FC01C9016BE770E040E050E09F01DC
:1004000002E00E94250625E730E08091CC01E82F2C
:10041000F0E0C9016CE770E040E050E09F0102E0CD
:100420000E9425060E94FE0081E00E94EC0580ECFF
:1004300091E062E00E948B032AE630E08091C401E3
:100440009091C501A091C601B091C701AC01C9014D
:1004500060E870E028EE33E002E00E9425062FE518
:1004600030E08091CC01482F50E0C90161E870E094
:1004700022E030E002E00E94250624E530E0809191
:10048000C8019091C901A091CA01B091CB01AC0102
:10049000C90162E870E022E030E002E00E94250637
:1004A00082E00E94EC050E94B5050000FECFDF93BC
:1004B000CF9300D000D00F92CDB7DEB79D838C8351
:1004C000EC81FD818585882309F04AC01B820EC01E
:1004D000EC81FD81248135818B81882F90E0F901A9
:1004E000E80FF91F10828B818F5F8B838B81282F00
:1004F00030E0EC81FD818085882F90E002972817FD
:10050000390734F3EC81FD8182819381892F99270A
:100510008A83EC81FD818281938189838B818F5FC6
:100520008B83EC81FD81248135818B81882F90E044
:10053000F901E80FF91F8A8180838B818F5F8B839C
:10054000EC81FD81248135818B81882F90E0F90138
:10055000E80FF91F89818083EC81FD8181E0858727
:100560000F900F900F900F900F90CF91DF91089503
:10057000DF93CF93CDB7DEB727970FB6F894DEBFE2
:100580000FBECDBF6C837D838E839F8319822091A4
:10059000DA013091DB018091DC01882F90E0880F37
:1005A000991FF901E80FF91F808191819B838A834C
:1005B000EA81FB818C819D81AE81BF818187928799
:1005C000A387B487EA81FB8182E085872091DA01E5
:1005D0003091DB018091DC01882F90E0880F991F1A
:1005E000F901E80FF91F0190F081E02D858519824E
:1005F000823011F481E089838981882339F7279635
:100600000FB6F894DEBF0FBECDBFCF91DF91089536
:10061000DF93CF9300D00F92CDB7DEB71B823EC0E1
:100620002091DA013091DB018B81882F90E0880FD7
:10063000991FF901E80FF91F808191819A838983BD
:10064000E981FA818585823031F5E981FA818185F8
:100650009285A385B4858B3F9105A105B10558F41A
:10066000E981FA811186128613861486E981FA815E
:1006700081E0858710C0E981FA8181859285A38513
:10068000B4858A5F9040A040B040E981FA818187BB
:100690009287A387B4878B818F5F8B839091DD01D5
:1006A0008B81891708F4BCCF0F900F900F90CF91DA
:1006B000DF910895DF93CF9300D000D0CDB7DEB7A0
:1006C00081E089831C821AC02091DA013091DB011C
:1006D0008C81882F90E0880F991FF901E80FF91F8E
:1006E000808191819B838A83EA81FB818585833028
:1006F00011F0198208C08C818F5F8C839091DD018D
:100700008C81891708F389810F900F900F900F90BB
:10071000CF91DF910895DF93CF9300D000D00F9257
:10072000CDB7DEB79C838B836D83EDE5F0E08081F0
:10073000918107969093DF018093DE011092DC0196
:100740008B819C819093DB018093DA018D81809372
:10075000DD011092DC011AC02091DA013091DB0139
:100760008091DC01882F90E0880F991FF901E80F34
:10077000F91F808191819A83898389819A810E945E
:1007800057028091DC018F5F8093DC019091DC0146
:100790008091DD01981700F31092DC01E091DA01FD
:1007A000F091DB01808191819A838983E3E5F0E018
:1007B00082E08083E9E5F0E081E080837894ADE534
:1007C000B0E0E981FA8186819781809611969C93A9
:1007D0008E93E981FA810190F081E02D09950F90C7
:1007E0000F900F900F900F90CF91DF910895DF93AE
:1007F000CF93CDB7DEB78091DC01282F30E0809118
:10080000DD01882F90E001972817390734F4809193
:10081000DC018F5F8093DC0102C01092DC01CF917C
:10082000DF910895DF93CF93CDB7DEB78091D201EA
:100830009091D30122E08E3E920709F042C0809150
:10084000D0019091D10123E0873E920761F580911C
:10085000CF018B33E1F48091CE018B3361F4809131
:10086000CD01882F90E0019628E130E0B9010E9487
:100870000E078093CD018091CE01882F90E00196E4
:100880002CE330E0B9010E940E078093CE018091E5
:10089000CF01882F90E001962CE330E0B9010E944F
:1008A0000E078093CF018091D0019091D1010196E4
:1008B00028EE33E0B9010E94FA069093D1018093AB
:1008C000D0018091D2019091D30186509F4F28EEA4
:1008D00033E0B9010E94FA069093D3018093D201CC
:1008E000CF91DF9108950E945A03882309F07AC0BE
:1008F0000F921F922F923F924F925F926F927F9230
:100900008F929F92AF92BF92CF92DF92EF92FF921F
:100910000F931F932F933F934F935F936F937F9307
:100920008F939F93AF93BF93CF93DF93EF93FF93F7
:100930002091DA013091DB018091DC01882F90E079
:10094000880F991FF901E80FF91F808191819A831F
:100950008983EDE5F0E080819181E981FA819783D7
:1009600086830E9412040E9408030E94F7032091CC
:10097000DA013091DB018091DC01882F90E0880F53
:10098000991FF901E80FF91F808191819A8389836A
:10099000ADE5B0E0E981FA818681978111969C935B
:1009A0008E93FF91EF91DF91CF91BF91AF919F9186
:1009B0008F917F916F915F914F913F912F911F91F7
:1009C0000F91FF90EF90DF90CF90BF90AF909F90EE
:1009D0008F907F906F905F904F903F902F901F90DF
:1009E0000F900BC0EDE5F0E08091DE019091DF010A
:1009F00091838083E9E5F0E010821895DF93CF932F
:100A0000CDB7DEB7E0E4F0E01082E9E2F0E081E0AB
:100A10008083AAE2B0E0EAE2F0E0808188608C9313
:100A2000E0E4F0E086E88083CF91DF910895DF93E2
:100A3000CF930F92CDB7DEB78983EBE2F0E08081F0
:100A4000882F90E0807290700097B9F3ECE2F0E0AC
:100A50008981808380E090E00F90CF91DF910895AD
:100A6000DF93CF9300D0CDB7DEB79A8389830AC0D6
:100A7000E981FA8180810E94170589819A81019616
:100A80009A838983E981FA818081882389F70F908D
:100A90000F90CF91DF910895DF93CF93CDB7DEB75D
:100AA0002D970FB6F894DEBF0FBECDBF9D878C8704
:100AB0008C859D859E012F5F3F4FB9014AE050E034
:100AC0000E942107CE0101960E9430052D960FB697
:100AD000F894DEBF0FBECDBFCF91DF910895DF93B5
:100AE000CF93CDB7DEB728970FB6F894DEBF0FBE11
:100AF000CDBF98878F8310C08F8198859E838D830B
:100B00008F819885019698878F83ED81FE818491EE
:100B10008C838C810E9417058F8198859B838A83A3
:100B2000EA81FB81849189838981882329F728962A
:100B30000FB6F894DEBF0FBECDBFCF91DF91089501
:100B4000DF93CF93CDB7DEB71092D4011092D701C7
:100B50001092D5011092D8011092D6018BE890E046
:100B60000E946F05CF91DF910895DF93CF93CDB7AA
:100B7000DEB79091D7018091D401890F8093D7017E
:100B80009091D8018091D501890F8093D8018FED84
:100B900090E00E946F058091D701882F90E00E941D
:100BA0004C0584ED90E00E946F058091D601882F5E
:100BB00090E00E944C058AEC90E00E946F058091C5
:100BC000D801882F90E00E944C058AEA90E00E94AC
:100BD0006F05CF91DF910895DF93CF930F92CDB73B
:100BE000DEB789838091D6018F5F8093D601809193
:100BF000D401882331F58091D5018F5F8093D50191
:100C000087E191E00E946F058091D901882F90E0E3
:100C10000E944C0582E191E00E946F059091D901FC
:100C20008981981729F48EE091E00E946F0509C030
:100C30008091D4018F5F8093D40185E091E00E9480
:100C40006F050F90CF91DF9108950F93DF93CF93AE
:100C5000CDB7DEB72C970FB6F894DEBF0FBECDBF71
:100C60009B838A837D836C835F834E833987288748
:100C70000A8719828091D6018F5F8093D601809177
:100C8000D401882309F0ACC08091D5018F5F809397
:100C9000D50189EB91E00E946F058A819B810E94BA
:100CA0006F058AE30E9417058C819D810E944C0587
:100CB0008A85282F30E03C872B878B859C85823066
:100CC0009105B1F12B853C852330310554F48B859A
:100CD0009C85009789F02B853C8521303105D1F02A
:100CE00050C08B859C858330910581F12B853C8597
:100CF00024303105C9F145C08BEA91E00E946F05AF
:100D00002E813F818885998528173907D4F581E0A0
:100D1000898337C088E991E00E946F052E813F8169
:100D2000888599858217930764F181E0898329C0BA
:100D300089E891E00E946F052E813F818885998521
:100D400028173907F1F481E089831BC084E791E01B
:100D50000E946F052E813F81888599852817390764
:100D600084F081E089830DC084E691E00E946F05E4
:100D70002E813F81888599858217930714F481E03D
:100D800089838E819F810E944C0582E691E00E94BA
:100D90006F05888599850E944C058CE591E00E943D
:100DA0006F058981882329F088E591E00E946F050D
:100DB00017C08FE491E00E946F058091D4018F5F8E
:100DC0008093D40185E391E00E946F058091D40166
:100DD000882F90E00E944C058CE291E00E946F0504
:100DE0002C960FB6F894DEBF0FBECDBFCF91DF912A
:100DF0000F910895AA1BBB1B51E107C0AA1FBB1F7F
:100E0000A617B70710F0A61BB70B881F991F5A9596
:100E1000A9F780959095BC01CD01089597FB092E07
:100E200007260AD077FD04D0E5DF06D000201AF4AB
:100E3000709561957F4F0895F6F7909581959F4F36
:100E40000895FB019F01E8944230C4F04532B4F4A8
:100E50004A3029F497FB1EF4909581959F4F642F9B
:100E600077270E94FA06805D8A330CF0895D8193B2
:100E7000CB010097A1F716F45DE251931082C901EE
:100E80000C944207DC01FC01672F71917723E1F795
:100E9000329704C07C916D9370836291AE17BF0747
:080EA000C8F30895F894FFCF98
:100EA800535441434B0000000000000000000000C4
:100EB800000000000000000000000000000000002A
:100EC800000000000000000000000000000000001A
:100ED800000000000000000000000000000000000A
:100EE80000000000000000000000000000000000FA
:100EF80000000000000000000000000000000000EA
:100F080000000000000000000000000000000000D9
:100F180000000000000000000000000000000000C9
:100F280000000000000000000000000000000000B9
:100F380000000000000000000000000000000000A9
:100F480000002B012B016000E000A200000000005F
:100F5800535441434B000000000000000000000013
:100F68000000000000000000000000000000000079
:100F78000000000000000000000000000000000069
:100F88000000000000000000000000000000000059
:100F98000000000000000000000000000000000049
:100FA8000000000000000000000000000000000039
:100FB8000000000000000000000000000000000029
:100FC8000000000000000000000000000000000019
:100FD8000000000000000000000000000000000009
:100FE80000000000000000000000000000000000F9
:100FF80000008B018B0110019001A200000000008D
:041008000201B2012E
:00000001FF
