:1000000012C02CC02BC02AC029C028C027C026C0BF
:1000100025C025C323C022C021C020C01FC01EC0D0
:100020001DC01CC01BC011241FBECFE5D4E0DEBF25
:10003000CDBF11E0A0E6B0E0E4EFF8E002C005902B
:100040000D92A235B107D9F711E0A2E5B1E001C0E8
:100050001D92AA36B107E1F7A0D04AC4D1CFDF93F1
:10006000CF93CDB7DEB7A7E3B0E0E7E3F0E0808160
:1000700081608C93A7E3B0E0E7E3F0E080818260E9
:100080008C93A7E3B0E0E7E3F0E0808184608C9399
:10009000A7E3B0E0E7E3F0E0808188608C93A7E31A
:1000A000B0E0E7E3F0E0808180618C93CF91DF9155
:1000B0000895DF93CF93CDB7DEB710925A01109217
:1000C0005B0110925C0110925D0121C0A8E3B0E0D9
:1000D000E8E3F0E0808181608C93A8E3B0E0E8E39E
:1000E000F0E080818E7F8C9380915A0190915B012A
:1000F000A0915C01B0915D010196A11DB11D80939D
:100100005A0190935B01A0935C01B0935D018091D3
:100110005A0190915B01A0915C01B0915D01803A20
:1001200026E8920721E0A20720E0B20778F283E0F8
:100130008093AF000000FECFDF93CF930F92CDB737
:10014000DEB71092590120C0198211C0A8E3B0E0B7
:10015000E8E3F0E0808182608C93A8E3B0E0E8E31C
:10016000F0E080818D7F8C9389818F5F8983898185
:10017000843660F360E27EE480E090E0BBD0809162
:1001800059018F5F80935901809159018230E0F2CB
:1001900083E08093FF000000FECFDF93CF93CDB7C5
:1001A000DEB7EDE5F0E08FE594E0918380830024F5
:1001B00011242224332444245524662477248824BB
:1001C0009924AA24BB24CC24DD24EE24FF24002778
:1001D0001127222733274427552766277727882783
:1001E0009927AA27BB27CC27DD27EE27FF2737DF54
:1001F000A8E3B0E0E8E3F0E0808188608C93A8E3B6
:10020000B0E0E8E3F0E08081877F8C9380E091E0CC
:1002100062E043D1A8E3B0E0E8E3F0E080818860E9
:100220008C93A8E3B0E0E8E3F0E08081877F8C93D3
:10023000F1CFDF93CF9300D000D00F92CDB7DEB7D0
:100240009D838C83EC81FD818585882309F04AC0DC
:100250001B820EC0EC81FD81248135818B81882F2A
:1002600090E0F901E80FF91F10828B818F5F8B837B
:100270008B81282F30E0EC81FD818085882F90E0F4
:1002800002972817390734F3EC81FD81828193812D
:10029000892F99278A83EC81FD81828193818983CB
:1002A0008B818F5F8B83EC81FD81248135818B81F4
:1002B000882F90E0F901E80FF91F8A8180838B81F4
:1002C0008F5F8B83EC81FD81248135818B81882F29
:1002D00090E0F901E80FF91F89818083EC81FD81AD
:1002E00081E085870F900F900F900F900F90CF9126
:1002F000DF910895DF93CF93CDB7DEB727970FB681
:10030000F894DEBF0FBECDBF6C837D838E839F8349
:10031000198220915E0130915F0180916001882FE8
:1003200090E0880F991FF901E80FF91F80819181F2
:100330009B838A83EA81FB818C819D81AE81BF8111
:1003400081879287A387B487EA81FB8182E08587D2
:1003500020915E0130915F0180916001882F90E0D3
:10036000880F991FF901E80FF91F0190F081E02D26
:1003700085851982823011F481E0898389818823FF
:1003800039F727960FB6F894DEBF0FBECDBFCF91D9
:10039000DF910895DF93CF9300D00F92CDB7DEB7F2
:1003A0001B823EC020915E0130915F018B81882FBE
:1003B00090E0880F991FF901E80FF91F8081918162
:1003C0009A838983E981FA818585823031F5E981D3
:1003D000FA8181859285A385B4858B3F9105A1051E
:1003E000B10558F4E981FA811186128613861486C4
:1003F000E981FA8181E0858710C0E981FA818185F0
:100400009285A385B4858A5F9040A040B040E98181
:10041000FA8181879287A387B4878B818F5F8B83D3
:10042000909161018B81891708F4BCCF0F900F90D8
:100430000F90CF91DF910895DF93CF9300D000D03C
:10044000CDB7DEB78FEF89831C821AC020915E0181
:1004500030915F018C81882F90E0880F991FF901FE
:10046000E80FF91F808191819B838A83EA81FB8158
:100470008585833011F0198208C08C818F5F8C8351
:10048000909161018C81891708F389810F900F90F9
:100490000F900F90CF91DF910895DF93CF9300D00D
:1004A00000D00F92CDB7DEB79C838B836D83EDE5D3
:1004B000F0E08081918107969093630180936201BF
:1004C000109260018B819C8190935F0180935E010B
:1004D0008D81809361011092600119C020915E01AD
:1004E00030915F0180916001882F90E0880F991F03
:1004F000F901E80FF91F808191819A8389838981AD
:100500009A8197DE809160018F5F80936001909166
:10051000600180916101981708F310926001E091E9
:100520005E01F0915F01808191819A838983E3E587
:10053000F0E082E08083E9E5F0E081E08083789478
:10054000ADE5B0E0E981FA818681978180961196C8
:100550009C938E93E981FA810190F081E02D0995B9
:100560000F900F900F900F900F90CF91DF91089503
:10057000DF93CF93CDB7DEB780916001282F30E0B5
:1005800080916101882F90E001972817390734F492
:10059000809160018F5F8093600102C010926001C2
:1005A000CF91DF910895DF93CF93CDB7DEB78091E0
:1005B00057019091580122E08E3E920709F03EC00B
:1005C000809155019091560123E0873E920749F5AD
:1005D000809154018B33D1F4809153018B3359F4C2
:1005E00080915201882F90E0019628E130E0B90116
:1005F00037D18093520180915301882F90E001966A
:100600002CE330E0B9012CD1809353018091540147
:10061000882F90E001962CE330E0B90121D180933E
:1006200054018091550190915601019628EE33E0D6
:10063000B90102D1909356018093550180915701E1
:100640009091580186509F4F28EE33E0B901F4D0C5
:100650009093580180935701CF91DF910895ECDE7C
:10066000882309F077C00F921F922F923F924F92EA
:100670005F926F927F928F929F92AF92BF92CF9232
:10068000DF92EF92FF920F931F932F933F934F931D
:100690005F936F937F938F939F93AF93BF93CF930A
:1006A000DF93EF93FF9320915E0130915F01809182
:1006B0006001882F90E0880F991FF901E80FF91F5A
:1006C000808191819A838983EDE5F0E08081918139
:1006D000E981FA819783868366DF5CDE49DF2091BA
:1006E0005E0130915F0180916001882F90E0880F5A
:1006F000991FF901E80FF91F808191819A838983FD
:10070000ADE5B0E0E981FA818681978111969C93ED
:100710008E93FF91EF91DF91CF91BF91AF919F9118
:100720008F917F916F915F914F913F912F911F9189
:100730000F91FF90EF90DF90CF90BF90AF909F9080
:100740008F907F906F905F904F903F902F901F9071
:100750000F900BC0EDE5F0E0809162019091630194
:1007600091838083E9E5F0E010821895DF93CF93C1
:10077000CDB7DEB784E091E086D0CF91DF910895C8
:10078000DF93CF93CDB7DEB78FE191E07CD080E0EF
:1007900090E0AED0DF93CF93CDB7DEB780E391E0AA
:1007A00072D080E090E0A4D0DF93CF93CDB7DEB7D6
:1007B0008EE391E068D080E090E09AD0DF93CF9311
:1007C0000F92CDB7DEB78983EBE2F0E08081882F0E
:1007D00090E0807290700097B9F3ECE2F0E08981CC
:1007E00080830F90CF91DF910895DF93CF9300D056
:1007F000CDB7DEB79A83898309C0E981FA81808108
:10080000DDDF89819A8101969A838983E981FA8162
:100810008081882391F70F900F90CF91DF910895F9
:10082000DF93CF9300D0CDB7DEB79A8389830F9043
:100830000F90CF91DF910895AA1BBB1B51E107C018
:10084000AA1FBB1FA617B70710F0A61BB70B881F60
:10085000991F5A95A9F780959095BC01CD010895EF
:1008600097FB092E07260AD077FD04D0E5DF06D0D6
:1008700000201AF4709561957F4F0895F6F79095D2
:1008800081959F4F08950F931F93CF93DF938C0112
:10089000E0916601F0916701838181FF21C0C0E092
:1008A000D0E00DC0E0916601F091670120853185AF
:1008B000BF01F9010995892B11F0CFEFDFEFF801A6
:1008C00081918F01882371F7E0916601F0916701B2
:1008D000208531858AE0BF01F9010995892B11F046
:1008E000CFEFDFEFCE01DF91CF911F910F910895F0
:0408F000F894FFCFAA
:1008F400535441434B00000000000000000000007E
:1009040000000000000000000000000000000000E3
:1009140000000000000000000000000000000000D3
:1009240000000000000000000000000000000000C3
:1009340000005900590060008000420000000000DF
:10094400535441434B00000000000000000000002D
:100954000000000000000000000000000000000093
:100964000000000000000000000000000000000083
:100974000000000000000000000000000000000073
:1009840000009C009C00B000D00042000000000069
:10099400A200F200496E6974206F66206861726477
:1009A400776172652066696E69736865642E0053A9
:1009B400797374656D2073687574646F776E2E0037
:1009C40053797374656D2072657365742E00537961
:1009D4007374656D20736166652073746174652E2C
:0209E400000011
:00000001FF
