:100000000C94DF000C94FC000C94FC000C94FC009D
:100010000C94FC000C94FC000C94FC000C94FC0070
:100020000C94FC000C94FC000C94FC000C94360422
:100030000C94FC000C94FC000C94FC000C94FC0050
:100040000C94FC000C94FC000C94FC000C94FC0040
:100050000C94FC0074696D65746573742E63007490
:10006000696D65746573742E630074696D6574657C
:1000700073742E630074696D65746573742E630008
:1000800074696D65746573742E63002D2D2D3D3D6F
:100090003D2323232054657374737569746520238D
:1000A00023233D3D3D2D2D2D0A000A2D2D2D2D2DD7
:1000B0002046696E6973686564205465737473754E
:1000C000697465202D2D2D2D0A002072756E732008
:1000D0006F6620000A457870656374656420002DA2
:1000E0002D2D3D3D3D2323232320524553554C5474
:1000F0005320232323233D3D3D2D2D2D0A45727290
:100100006F72733D004661696C7572650A004F4BF2
:100110000A002E2E2E2000436865636B696E6720EF
:100120005472616365706F696E742000204552528D
:100130004F52530A0054657374732061626F727476
:1001400065642062656361757365206F6620004693
:1001500061696C7572650A004F4B0A00292E2E2EBC
:1001600020002C002061737365727447726561749E
:1001700065722800206173736572744772656174DB
:100180006572457175616C280020617373657274C6
:10019000457175616C732800206173736572744CCE
:1001A0006F776572457175616C28002061737365A6
:1001B00072744C6F7765722800202A200000112489
:1001C0001FBECFE5D8E0DEBFCDBF11E0A0E6B0E0B6
:1001D000ECE2FEE002C005900D92A43CB107D9F715
:1001E00011E0A4ECB1E001C01D92AA3DB107E1F716
:1001F0000E9492010C9414070C940000DF93CF939B
:10020000CDB7DEB7A7E3B0E0E7E3F0E0808181603F
:100210008C93A7E3B0E0E7E3F0E0808182608C9309
:10022000A7E3B0E0E7E3F0E0808184608C93A7E38C
:10023000B0E0E7E3F0E0808188608C93A7E3B0E072
:10024000E7E3F0E0808180618C9381E08093D301CB
:10025000CF91DF910895DF93CF93CDB7DEB71092A2
:10026000C4011FC01092C50113C0A8E3B0E0E8E3C9
:10027000F0E0808181608C93A8E3B0E0E8E3F0E0F7
:1002800080818E7F8C938091C5018F5F8093C501A3
:100290008091C501843648F38091C4018F5F8093BB
:1002A000C4018091C4018436E8F282E08093D301D6
:1002B00083E080930F010000FECFDF93CF930F9276
:1002C000CDB7DEB71092C60121C0198211C0A8E3D4
:1002D000B0E0E8E3F0E0808182608C93A8E3B0E0D6
:1002E000E8E3F0E080818D7F8C9389818F5F898343
:1002F0008981843660F360E27EE480E090E00E94D1
:100300007B028091C6018F5F8093C6018091C601F8
:100310008230D8F283E08093D30183E08093BF01E1
:100320000000FECF0F93DF93CF93CDB7DEB7EDE59F
:10033000F0E08FE598E0918380830024112422244B
:100340003324442455246624772488249924AA2419
:10035000BB24CC24DD24EE24FF24002711272227F0
:100360003327442755276627772788279927AA27E1
:10037000BB27CC27DD27EE27FF270E94C0040E9461
:10038000620520E830E08091C401E82FF0E0C90167
:100390006AE870E040E050E09F0102E00E94E7055B
:1003A00025E730E08091C601E82FF0E0C9016BE855
:1003B00070E040E050E09F0102E00E94E7050E94EB
:1003C000FE0081E00E94AE0580EC91E062E00E94B8
:1003D0004E032AE630E08091C401482F50E0C90165
:1003E00060E970E024E630E002E00E94E7052FE5D6
:1003F00030E08091C601482F50E0C90161E970E00A
:1004000022E030E002E00E94E70524E530E0809140
:10041000C501482F50E0C90162E970E024E630E0F0
:1004200002E00E94E70583E00E94AE050E94770586
:100430000000FECFDF93CF9300D000D00F92CDB756
:10044000DEB79D838C83EC81FD818585882309F04F
:100450004AC01B820EC0EC81FD81248135818B81D5
:10046000882F90E0F901E80FF91F10828B818F5FD0
:100470008B838B81282F30E0EC81FD818085882F54
:1004800090E002972817390734F3EC81FD818281CF
:100490009381892F99278A83EC81FD8182819381C1
:1004A00089838B818F5F8B83EC81FD8124813581F2
:1004B0008B81882F90E0F901E80FF91F8A818083F2
:1004C0008B818F5F8B83EC81FD81248135818B81D2
:1004D000882F90E0F901E80FF91F89818083EC8172
:1004E000FD8181E085870F900F900F900F900F9006
:1004F000CF91DF910895DF93CF93CDB7DEB72797E4
:100500000FB6F894DEBF0FBECDBF6C837D838E83A4
:100510009F8319822091D4013091D5018091D60119
:10052000882F90E0880F991FF901E80FF91F80814B
:1005300091819B838A83EA81FB818C819D81AE813D
:10054000BF8181879287A387B487EA81FB8182E09C
:1005500085872091D4013091D5018091D601882FD3
:1005600090E0880F991FF901E80FF91F0190F081C1
:10057000E02D85851982823011F481E0898389819B
:10058000882339F727960FB6F894DEBF0FBECDBF8C
:10059000CF91DF910895DF93CF9300D00F92CDB725
:1005A000DEB71B823EC02091D4013091D5018B81F2
:1005B000882F90E0880F991FF901E80FF91F8081BB
:1005C00091819A838983E981FA818585823031F529
:1005D000E981FA8181859285A385B4858B3F910558
:1005E000A105B10558F4E981FA81118612861386B6
:1005F0001486E981FA8181E0858710C0E981FA815A
:1006000081859285A385B4858A5F9040A040B040E3
:10061000E981FA8181879287A387B4878B818F5F75
:100620008B839091D7018B81891708F4BCCF0F90F1
:100630000F900F90CF91DF910895DF93CF9300D06B
:1006400000D0CDB7DEB781E089831C821AC020912B
:10065000D4013091D5018C81882F90E0880F991FAB
:10066000F901E80FF91F808191819B838A83EA81D8
:10067000FB818585833011F0198208C08C818F5FE2
:100680008C839091D7018C81891708F389810F9011
:100690000F900F900F90CF91DF910895DF93CF933C
:1006A00000D000D00F92CDB7DEB79C838B836D83D3
:1006B000EDE5F0E08081918107969093D9018093D8
:1006C000D8011092D6018B819C819093D5018093A3
:1006D000D4018D818093D7011092D6011AC0209148
:1006E000D4013091D5018091D601882F90E0880FF8
:1006F000991FF901E80FF91F808191819A838983FD
:1007000089819A810E941A028091D6018F5F80931D
:10071000D6019091D6018091D701981700F31092DD
:10072000D601E091D401F091D501808191819A8325
:100730008983E3E5F0E082E08083E9E5F0E081E0B1
:1007400080837894ADE5B0E0E981FA818681978174
:10075000809611969C938E93E981FA810190F081A5
:10076000E02D09950F900F900F900F900F90CF9163
:10077000DF910895DF93CF93CDB7DEB78091D60197
:10078000282F30E08091D701882F90E0019728171B
:10079000390734F48091D6018F5F8093D60102C06F
:1007A0001092D601CF91DF910895DF93CF93CDB70B
:1007B000DEB78091CC019091CD0122E08E3E920770
:1007C00009F042C08091CA019091CB0123E0873E9D
:1007D000920761F58091C9018B33E1F48091C801E2
:1007E0008B3361F48091C701882F90E0019628E156
:1007F00030E0B9010E94D0068093C7018091C80102
:10080000882F90E001962CE330E0B9010E94D006D9
:100810008093C8018091C901882F90E001962CE354
:1008200030E0B9010E94D0068093C9018091CA01CD
:100830009091CB01019628EE33E0B9010E94BC06ED
:100840009093CB018093CA018091CC019091CD010E
:1008500086509F4F28EE33E0B9010E94BC0690936A
:10086000CD018093CC01CF91DF9108950F921F921B
:100870002F923F924F925F926F927F928F929F92B0
:10088000AF92BF92CF92DF92EF92FF920F931F939E
:100890002F933F934F935F936F937F938F939F9388
:1008A000AF93BF93CF93DF93EF93FF932091D40146
:1008B0003091D5018091D601882F90E0880F991F43
:1008C000F901E80FF91F808191819A838983EDE511
:1008D000F0E080819181E981FA81978386830E948B
:1008E000D5030E94CB020E941D03882361F0EDE531
:1008F000F0E08091D8019091D90191838083E9E55E
:10090000F0E0108218950E94BA032091D401309132
:10091000D5018091D601882F90E0880F991FF901A9
:10092000E80FF91F808191819A838983ADE5B0E05A
:10093000E981FA818681978111969C938E93FF912C
:10094000EF91DF91CF91BF91AF919F918F917F9167
:100950006F915F914F913F912F911F910F91FF9058
:10096000EF90DF90CF90BF90AF909F908F907F904F
:100970006F905F904F903F902F901F900F90189521
:10098000DF93CF93CDB7DEB7E0E4F0E01082E9E289
:10099000F0E081E08083AAE2B0E0EAE2F0E080816A
:1009A00088608C93E0E4F0E086E88083CF91DF916B
:1009B0000895DF93CF930F92CDB7DEB78983EBE233
:1009C000F0E08081882F90E0807290700097B9F3FA
:1009D000ECE2F0E08981808380E090E00F90CF919D
:1009E000DF910895DF93CF9300D0CDB7DEB79A8320
:1009F00089830AC0E981FA8180810E94D9048981B2
:100A00009A8101969A838983E981FA81808188237A
:100A100089F70F900F90CF91DF910895DF93CF93D7
:100A2000CDB7DEB72D970FB6F894DEBF0FBECDBFA2
:100A30009D878C878C859D859E012F5F3F4FB901D7
:100A40004AE050E00E94E306CE0101960E94F204C3
:100A50002D960FB6F894DEBF0FBECDBFCF91DF91BC
:100A60000895DF93CF93CDB7DEB728970FB6F894EC
:100A7000DEBF0FBECDBF98878F8310C08F81988552
:100A80009E838D838F819885019698878F83ED81D2
:100A9000FE8184918C838C810E94D9048F819885FA
:100AA0009B838A83EA81FB8184918983898188235E
:100AB00029F728960FB6F894DEBF0FBECDBFCF91B1
:100AC000DF910895DF93CF93CDB7DEB71092CE01BB
:100AD0001092D1011092CF011092D2011092D00148
:100AE0008BE890E00E943105CF91DF910895DF936C
:100AF000CF93CDB7DEB79091D1018091CE01890F10
:100B00008093D1019091D2018091CF01890F809380
:100B1000D2018FED90E00E9431058091D101882FA4
:100B200090E00E940E0584ED90E00E9431058091D6
:100B3000D001882F90E00E940E058AEC90E00E9480
:100B400031058091D201882F90E00E940E058AEA3B
:100B500090E00E943105CF91DF910895DF93CF930C
:100B60000F92CDB7DEB789838091D0018F5F8093DC
:100B7000D0018091CE01882331F58091CF018F5F24
:100B80008093CF0187E191E00E9431058091D301EC
:100B9000882F90E00E940E0582E191E00E943105CD
:100BA0009091D3018981981729F48EE091E00E94F9
:100BB000310509C08091CE018F5F8093CE0185E021
:100BC00091E00E9431050F90CF91DF9108950F932E
:100BD000DF93CF93CDB7DEB72C970FB6F894DEBF77
:100BE0000FBECDBF9B838A837D836C835F834E83DF
:100BF000398728870A8719828091D0018F5F809377
:100C0000D0018091CE01882309F0ACC08091CF0142
:100C10008F5F8093CF0189EB91E00E9431058A813B
:100C20009B810E9431058AE30E94D9048C819D81B9
:100C30000E940E058A85282F30E03C872B878B8504
:100C40009C8582309105B1F12B853C85233031059F
:100C500054F48B859C85009789F02B853C85213049
:100C60003105D1F050C08B859C858330910581F191
:100C70002B853C8524303105C9F145C08BEA91E0D4
:100C80000E9431052E813F81888599852817390773
:100C9000D4F581E0898337C088E991E00E9431056D
:100CA0002E813F81888599858217930764F181E0C1
:100CB000898329C089E891E00E9431052E813F8116
:100CC0008885998528173907F1F481E089831BC04D
:100CD00084E791E00E9431052E813F8188859985C6
:100CE0002817390784F081E089830DC084E691E0FC
:100CF0000E9431052E813F8188859985821793074F
:100D000014F481E089838E819F810E940E0582E622
:100D100091E00E943105888599850E940E058CE539
:100D200091E00E9431058981882329F088E591E0CE
:100D30000E94310517C08FE491E00E943105809137
:100D4000CE018F5F8093CE0185E391E00E94310553
:100D50008091CE01882F90E00E940E058CE291E0F8
:100D60000E9431052C960FB6F894DEBF0FBECDBFA2
:100D7000CF91DF910F910895AA1BBB1B51E107C0D2
:100D8000AA1FBB1FA617B70710F0A61BB70B881F1B
:100D9000991F5A95A9F780959095BC01CD010895AA
:100DA00097FB092E07260AD077FD04D0E5DF06D091
:100DB00000201AF4709561957F4F0895F6F790958D
:100DC00081959F4F0895FB019F01E8944230C4F044
:100DD0004532B4F44A3029F497FB1EF4909581957E
:100DE0009F4F642F77270E94BC06805D8A330CF0EA
:100DF000895D8193CB010097A1F716F45DE25193D1
:100E00001082C9010C940407DC01FC01672F719169
:100E10007723E1F7329704C07C916D9370836291E0
:0C0E2000AE17BF07C8F30895F894FFCF89
:100E2C00535441434B000000000000000000000040
:100E3C0000000000000000000000000000000000A6
:100E4C000000000000000000000000000000000096
:100E5C000000000000000000000000000000000086
:100E6C000000000000000000000000000000000076
:100E7C000000000000000000000000000000000066
:100E8C000000000000000000000000000000000056
:100E9C000000000000000000000000000000000046
:100EAC000000000000000000000000000000000036
:100EBC000000000000000000000000000000000026
:100ECC0000002B012B016000E000A20000000000DC
:100EDC00535441434B000000000000000000000090
:100EEC0000000000000000000000000000000000F6
:100EFC0000000000000000000000000000000000E6
:100F0C0000000000000000000000000000000000D5
:100F1C0000000000000000000000000000000000C5
:100F2C0000000000000000000000000000000000B5
:100F3C0000000000000000000000000000000000A5
:100F4C000000000000000000000000000000000095
:100F5C000000000000000000000000000000000085
:100F6C000000000000000000000000000000000075
:100F7C0000005D015D0110019001A2000000000065
:040F8C000201B201AB
:00000001FF
